{
  "address": "0xaa42B58C9f3605cD213EabeAd793bB41e0B68FF6",
  "abi": [
    {
      "inputs": [
        {
          "internalType": "address",
          "name": "exampleExternalContractAddress",
          "type": "address"
        }
      ],
      "stateMutability": "nonpayable",
      "type": "constructor"
    },
    {
      "anonymous": false,
      "inputs": [
        {
          "indexed": false,
          "internalType": "address",
          "name": "",
          "type": "address"
        },
        {
          "indexed": false,
          "internalType": "uint256",
          "name": "",
          "type": "uint256"
        }
      ],
      "name": "Stake",
      "type": "event"
    },
    {
      "stateMutability": "payable",
      "type": "fallback"
    },
    {
      "inputs": [
        {
          "internalType": "address",
          "name": "",
          "type": "address"
        }
      ],
      "name": "balances",
      "outputs": [
        {
          "internalType": "uint256",
          "name": "",
          "type": "uint256"
        }
      ],
      "stateMutability": "view",
      "type": "function"
    },
    {
      "inputs": [],
      "name": "deadline",
      "outputs": [
        {
          "internalType": "uint256",
          "name": "",
          "type": "uint256"
        }
      ],
      "stateMutability": "view",
      "type": "function"
    },
    {
      "inputs": [],
      "name": "execute",
      "outputs": [],
      "stateMutability": "payable",
      "type": "function"
    },
    {
      "inputs": [],
      "name": "stake",
      "outputs": [],
      "stateMutability": "payable",
      "type": "function"
    },
    {
      "inputs": [],
      "name": "threshold",
      "outputs": [
        {
          "internalType": "uint256",
          "name": "",
          "type": "uint256"
        }
      ],
      "stateMutability": "view",
      "type": "function"
    },
    {
      "inputs": [],
      "name": "timeLeft",
      "outputs": [
        {
          "internalType": "uint256",
          "name": "",
          "type": "uint256"
        }
      ],
      "stateMutability": "view",
      "type": "function"
    },
    {
      "inputs": [],
      "name": "withdraw",
      "outputs": [],
      "stateMutability": "payable",
      "type": "function"
    },
    {
      "stateMutability": "payable",
      "type": "receive"
    }
  ],
  "transactionHash": "0x3118c1689d495e5b93e881753b9885816695155dd6255fcfff41853ed22e9dad",
  "args": [
    "0x3da2EcfBd1CdDF291F2D4aDc03cDd00FDeA3F7C6"
  ],
  "numDeployments": 1,
  "solcInputHash": "dcedb478213a1e611219b0250daca4d9",
  "bytecode": "0x6080604052610011426203f48061009c565b6002556003805460ff1916905534801561002a57600080fd5b5060405161060a38038061060a8339810160408190526100499161006e565b600080546001600160a01b0319166001600160a01b03929092169190911790556100c0565b60006020828403121561007f578081fd5b81516001600160a01b0381168114610095578182fd5b9392505050565b600082198211156100bb57634e487b7160e01b81526011600452602481fd5b500190565b61053b806100cf6000396000f3fe60806040526004361061006e5760003560e01c80633a4b66f11161004b5780633a4b66f1146100e15780633ccfd60b146100e957806342cde4e8146100f1578063614619541461010d57005b80631300a6d11461007757806327e235e31461009e57806329dcb0cf146100cb57005b3661007557005b005b34801561008357600080fd5b5061008c610115565b60405190815260200160405180910390f35b3480156100aa57600080fd5b5061008c6100b9366004610427565b60016020526000908152604090205481565b3480156100d757600080fd5b5061008c60025481565b610075610139565b6100756101d6565b3480156100fd57600080fd5b5061008c670de0b6b3a764000081565b6100756102e8565b600060025442106101265750600090565b4260025461013491906104d8565b905090565b33600090815260016020526040812080543492906101589084906104c0565b909155505060408051808201909152601981527f25732046756e64732072656365697665642066726f6d20257300000000000000602082015261019c9034336103b8565b604080513381523460208201527febedb8b3c678666e7f36970bc8f57abf6d8fa2e828c0da91ea5b75bf68ed101a910160405180910390a1565b60035460ff1661022d5760405162461bcd60e51b815260206004820152601a60248201527f5769746864726177616c206e6f7420616c6c6f7765642079657400000000000060448201526064015b60405180910390fd5b33600090815260016020526040812080549182919061024c83806104d8565b90915550506040516000908190339084908381818185875af1925050503d8060008114610295576040519150601f19603f3d011682016040523d82523d6000602084013e61029a565b606091505b5091509150816102e35760405162461bcd60e51b81526020600482015260146024820152732330b4b632b2103a379039b2b7321022ba3432b960611b6044820152606401610224565b505050565b60025442116103305760405162461bcd60e51b8152602060048201526014602482015273111958591b1a5b99481b9bdd081e595d081b595d60621b6044820152606401610224565b670de0b6b3a76400004711156103a95760008054906101000a90046001600160a01b03166001600160a01b031663522e1177476040518263ffffffff1660e01b81526004016000604051808303818588803b15801561038e57600080fd5b505af11580156103a2573d6000803e3d6000fd5b5050505050565b6003805460ff19166001179055565b6102e38383836040516024016103d093929190610455565b60408051601f198184030181529190526020810180516001600160e01b031663038fd88960e31b17905261040381610406565b50565b60006a636f6e736f6c652e6c6f679050600080835160208501845afa505050565b600060208284031215610438578081fd5b81356001600160a01b038116811461044e578182fd5b9392505050565b6060815260008451806060840152815b818110156104825760208188018101516080868401015201610465565b818111156104935782608083860101525b506020830194909452506001600160a01b039190911660408201526080601f909201601f19160101919050565b600082198211156104d3576104d36104ef565b500190565b6000828210156104ea576104ea6104ef565b500390565b634e487b7160e01b600052601160045260246000fdfea264697066735822122050c9903f090908bdd768d9afaa3e10d4007b9c3e28ce24446108a2864649fe4764736f6c63430008040033",
  "devdoc": {
    "kind": "dev",
    "methods": {},
    "version": 1
  },
  "userdoc": {
    "kind": "user",
    "methods": {},
    "version": 1
  },
  "storageLayout": {
    "storage": [
      {
        "astId": 19,
        "contract": "contracts/Staker.sol:Staker",
        "label": "exampleExternalContract",
        "offset": 0,
        "slot": "0",
        "type": "t_contract(ExampleExternalContract)12"
      },
      {
        "astId": 23,
        "contract": "contracts/Staker.sol:Staker",
        "label": "balances",
        "offset": 0,
        "slot": "1",
        "type": "t_mapping(t_address,t_uint256)"
      },
      {
        "astId": 32,
        "contract": "contracts/Staker.sol:Staker",
        "label": "deadline",
        "offset": 0,
        "slot": "2",
        "type": "t_uint256"
      },
      {
        "astId": 35,
        "contract": "contracts/Staker.sol:Staker",
        "label": "openForWithdraw",
        "offset": 0,
        "slot": "3",
        "type": "t_bool"
      }
    ],
    "types": {
      "t_address": {
        "encoding": "inplace",
        "label": "address",
        "numberOfBytes": "20"
      },
      "t_bool": {
        "encoding": "inplace",
        "label": "bool",
        "numberOfBytes": "1"
      },
      "t_contract(ExampleExternalContract)12": {
        "encoding": "inplace",
        "label": "contract ExampleExternalContract",
        "numberOfBytes": "20"
      },
      "t_mapping(t_address,t_uint256)": {
        "encoding": "mapping",
        "key": "t_address",
        "label": "mapping(address => uint256)",
        "numberOfBytes": "32",
        "value": "t_uint256"
      },
      "t_uint256": {
        "encoding": "inplace",
        "label": "uint256",
        "numberOfBytes": "32"
      }
    }
  }
}